{
  "_format": "hh-sol-artifact-1",
  "contractName": "BorrowYourCar",
  "sourceName": "contracts/BorrowYourCar.sol",
  "abi": [
    {
      "inputs": [],
      "stateMutability": "nonpayable",
      "type": "constructor"
    },
    {
      "inputs": [
        {
          "internalType": "address",
          "name": "spender",
          "type": "address"
        },
        {
          "internalType": "uint256",
          "name": "allowance",
          "type": "uint256"
        },
        {
          "internalType": "uint256",
          "name": "needed",
          "type": "uint256"
        }
      ],
      "name": "ERC20InsufficientAllowance",
      "type": "error"
    },
    {
      "inputs": [
        {
          "internalType": "address",
          "name": "sender",
          "type": "address"
        },
        {
          "internalType": "uint256",
          "name": "balance",
          "type": "uint256"
        },
        {
          "internalType": "uint256",
          "name": "needed",
          "type": "uint256"
        }
      ],
      "name": "ERC20InsufficientBalance",
      "type": "error"
    },
    {
      "inputs": [
        {
          "internalType": "address",
          "name": "approver",
          "type": "address"
        }
      ],
      "name": "ERC20InvalidApprover",
      "type": "error"
    },
    {
      "inputs": [
        {
          "internalType": "address",
          "name": "receiver",
          "type": "address"
        }
      ],
      "name": "ERC20InvalidReceiver",
      "type": "error"
    },
    {
      "inputs": [
        {
          "internalType": "address",
          "name": "sender",
          "type": "address"
        }
      ],
      "name": "ERC20InvalidSender",
      "type": "error"
    },
    {
      "inputs": [
        {
          "internalType": "address",
          "name": "spender",
          "type": "address"
        }
      ],
      "name": "ERC20InvalidSpender",
      "type": "error"
    },
    {
      "anonymous": false,
      "inputs": [
        {
          "indexed": true,
          "internalType": "address",
          "name": "owner",
          "type": "address"
        },
        {
          "indexed": true,
          "internalType": "address",
          "name": "spender",
          "type": "address"
        },
        {
          "indexed": false,
          "internalType": "uint256",
          "name": "value",
          "type": "uint256"
        }
      ],
      "name": "Approval",
      "type": "event"
    },
    {
      "anonymous": false,
      "inputs": [
        {
          "indexed": true,
          "internalType": "address",
          "name": "from",
          "type": "address"
        },
        {
          "indexed": true,
          "internalType": "address",
          "name": "to",
          "type": "address"
        },
        {
          "indexed": false,
          "internalType": "uint256",
          "name": "value",
          "type": "uint256"
        }
      ],
      "name": "Transfer",
      "type": "event"
    },
    {
      "inputs": [
        {
          "internalType": "uint256",
          "name": "m",
          "type": "uint256"
        }
      ],
      "name": "addCar",
      "outputs": [],
      "stateMutability": "nonpayable",
      "type": "function"
    },
    {
      "inputs": [
        {
          "internalType": "address",
          "name": "owner",
          "type": "address"
        },
        {
          "internalType": "address",
          "name": "spender",
          "type": "address"
        }
      ],
      "name": "allowance",
      "outputs": [
        {
          "internalType": "uint256",
          "name": "",
          "type": "uint256"
        }
      ],
      "stateMutability": "view",
      "type": "function"
    },
    {
      "inputs": [
        {
          "internalType": "address",
          "name": "spender",
          "type": "address"
        },
        {
          "internalType": "uint256",
          "name": "value",
          "type": "uint256"
        }
      ],
      "name": "approve",
      "outputs": [
        {
          "internalType": "bool",
          "name": "",
          "type": "bool"
        }
      ],
      "stateMutability": "nonpayable",
      "type": "function"
    },
    {
      "inputs": [
        {
          "internalType": "address",
          "name": "account",
          "type": "address"
        }
      ],
      "name": "balanceOf",
      "outputs": [
        {
          "internalType": "uint256",
          "name": "",
          "type": "uint256"
        }
      ],
      "stateMutability": "view",
      "type": "function"
    },
    {
      "inputs": [],
      "name": "borrowlist",
      "outputs": [
        {
          "internalType": "uint256[]",
          "name": "",
          "type": "uint256[]"
        },
        {
          "internalType": "uint256[]",
          "name": "",
          "type": "uint256[]"
        },
        {
          "internalType": "address[]",
          "name": "",
          "type": "address[]"
        }
      ],
      "stateMutability": "view",
      "type": "function"
    },
    {
      "inputs": [
        {
          "internalType": "uint256",
          "name": "",
          "type": "uint256"
        }
      ],
      "name": "cars",
      "outputs": [
        {
          "internalType": "uint256",
          "name": "model",
          "type": "uint256"
        },
        {
          "internalType": "address",
          "name": "owner",
          "type": "address"
        },
        {
          "internalType": "address",
          "name": "borrower",
          "type": "address"
        },
        {
          "internalType": "uint256",
          "name": "borrowUntil",
          "type": "uint256"
        }
      ],
      "stateMutability": "view",
      "type": "function"
    },
    {
      "inputs": [],
      "name": "decimals",
      "outputs": [
        {
          "internalType": "uint8",
          "name": "",
          "type": "uint8"
        }
      ],
      "stateMutability": "view",
      "type": "function"
    },
    {
      "inputs": [],
      "name": "idlelist",
      "outputs": [
        {
          "internalType": "uint256[]",
          "name": "",
          "type": "uint256[]"
        },
        {
          "internalType": "uint256[]",
          "name": "",
          "type": "uint256[]"
        },
        {
          "internalType": "address[]",
          "name": "",
          "type": "address[]"
        }
      ],
      "stateMutability": "view",
      "type": "function"
    },
    {
      "inputs": [
        {
          "internalType": "uint256",
          "name": "tokenId",
          "type": "uint256"
        }
      ],
      "name": "indexCar",
      "outputs": [],
      "stateMutability": "nonpayable",
      "type": "function"
    },
    {
      "inputs": [],
      "name": "name",
      "outputs": [
        {
          "internalType": "string",
          "name": "",
          "type": "string"
        }
      ],
      "stateMutability": "view",
      "type": "function"
    },
    {
      "inputs": [],
      "name": "ownercarlist",
      "outputs": [
        {
          "internalType": "uint256[]",
          "name": "",
          "type": "uint256[]"
        },
        {
          "internalType": "uint256[]",
          "name": "",
          "type": "uint256[]"
        },
        {
          "internalType": "address[]",
          "name": "",
          "type": "address[]"
        }
      ],
      "stateMutability": "view",
      "type": "function"
    },
    {
      "inputs": [],
      "name": "querybalance",
      "outputs": [
        {
          "internalType": "uint256",
          "name": "",
          "type": "uint256"
        }
      ],
      "stateMutability": "view",
      "type": "function"
    },
    {
      "inputs": [
        {
          "internalType": "uint256",
          "name": "tokenId",
          "type": "uint256"
        }
      ],
      "name": "returnCar",
      "outputs": [],
      "stateMutability": "nonpayable",
      "type": "function"
    },
    {
      "inputs": [],
      "name": "returnquery",
      "outputs": [
        {
          "internalType": "address",
          "name": "",
          "type": "address"
        },
        {
          "internalType": "uint256",
          "name": "",
          "type": "uint256"
        },
        {
          "internalType": "address",
          "name": "",
          "type": "address"
        }
      ],
      "stateMutability": "view",
      "type": "function"
    },
    {
      "inputs": [
        {
          "internalType": "uint256",
          "name": "tokenId",
          "type": "uint256"
        },
        {
          "internalType": "address",
          "name": "user",
          "type": "address"
        }
      ],
      "name": "setUser",
      "outputs": [],
      "stateMutability": "nonpayable",
      "type": "function"
    },
    {
      "inputs": [],
      "name": "symbol",
      "outputs": [
        {
          "internalType": "string",
          "name": "",
          "type": "string"
        }
      ],
      "stateMutability": "view",
      "type": "function"
    },
    {
      "inputs": [],
      "name": "totalSupply",
      "outputs": [
        {
          "internalType": "uint256",
          "name": "",
          "type": "uint256"
        }
      ],
      "stateMutability": "view",
      "type": "function"
    },
    {
      "inputs": [
        {
          "internalType": "address",
          "name": "to",
          "type": "address"
        },
        {
          "internalType": "uint256",
          "name": "value",
          "type": "uint256"
        }
      ],
      "name": "transfer",
      "outputs": [
        {
          "internalType": "bool",
          "name": "",
          "type": "bool"
        }
      ],
      "stateMutability": "nonpayable",
      "type": "function"
    },
    {
      "inputs": [
        {
          "internalType": "address",
          "name": "from",
          "type": "address"
        },
        {
          "internalType": "address",
          "name": "to",
          "type": "address"
        },
        {
          "internalType": "uint256",
          "name": "value",
          "type": "uint256"
        }
      ],
      "name": "transferFrom",
      "outputs": [
        {
          "internalType": "bool",
          "name": "",
          "type": "bool"
        }
      ],
      "stateMutability": "nonpayable",
      "type": "function"
    },
    {
      "inputs": [
        {
          "internalType": "uint256",
          "name": "tokenId",
          "type": "uint256"
        }
      ],
      "name": "userExpires",
      "outputs": [
        {
          "internalType": "uint256",
          "name": "",
          "type": "uint256"
        }
      ],
      "stateMutability": "view",
      "type": "function"
    },
    {
      "inputs": [
        {
          "internalType": "uint256",
          "name": "tokenId",
          "type": "uint256"
        }
      ],
      "name": "userOf",
      "outputs": [
        {
          "internalType": "address",
          "name": "",
          "type": "address"
        }
      ],
      "stateMutability": "view",
      "type": "function"
    }
  ],
  "bytecode": "0x60806040526064600855601e6009553480156200001b57600080fd5b506040518060400160405280600881526020017f434152544f4b454e0000000000000000000000000000000000000000000000008152506040518060400160405280600281526020017f435400000000000000000000000000000000000000000000000000000000000081525081600390816200009991906200060e565b508060049081620000ab91906200060e565b505050620000c933683635c9adc5dea00000620000d760201b60201c565b60006007819055506200082c565b600073ffffffffffffffffffffffffffffffffffffffff168273ffffffffffffffffffffffffffffffffffffffff16036200014c5760006040517fec442f050000000000000000000000000000000000000000000000000000000081526004016200014391906200073a565b60405180910390fd5b62000160600083836200016460201b60201c565b5050565b600073ffffffffffffffffffffffffffffffffffffffff168373ffffffffffffffffffffffffffffffffffffffff1603620001ba578060026000828254620001ad919062000786565b9250508190555062000290565b60008060008573ffffffffffffffffffffffffffffffffffffffff1673ffffffffffffffffffffffffffffffffffffffff1681526020019081526020016000205490508181101562000249578381836040517fe450d38c0000000000000000000000000000000000000000000000000000000081526004016200024093929190620007d2565b60405180910390fd5b8181036000808673ffffffffffffffffffffffffffffffffffffffff1673ffffffffffffffffffffffffffffffffffffffff16815260200190815260200160002081905550505b600073ffffffffffffffffffffffffffffffffffffffff168273ffffffffffffffffffffffffffffffffffffffff1603620002db578060026000828254039250508190555062000328565b806000808473ffffffffffffffffffffffffffffffffffffffff1673ffffffffffffffffffffffffffffffffffffffff168152602001908152602001600020600082825401925050819055505b8173ffffffffffffffffffffffffffffffffffffffff168373ffffffffffffffffffffffffffffffffffffffff167fddf252ad1be2c89b69c2b068fc378daa952ba7f163c4a11628f55a4df523b3ef836040516200038791906200080f565b60405180910390a3505050565b600081519050919050565b7f4e487b7100000000000000000000000000000000000000000000000000000000600052604160045260246000fd5b7f4e487b7100000000000000000000000000000000000000000000000000000000600052602260045260246000fd5b600060028204905060018216806200041657607f821691505b6020821081036200042c576200042b620003ce565b5b50919050565b60008190508160005260206000209050919050565b60006020601f8301049050919050565b600082821b905092915050565b600060088302620004967fffffffffffffffffffffffffffffffffffffffffffffffffffffffffffffffff8262000457565b620004a2868362000457565b95508019841693508086168417925050509392505050565b6000819050919050565b6000819050919050565b6000620004ef620004e9620004e384620004ba565b620004c4565b620004ba565b9050919050565b6000819050919050565b6200050b83620004ce565b620005236200051a82620004f6565b84845462000464565b825550505050565b600090565b6200053a6200052b565b6200054781848462000500565b505050565b5b818110156200056f576200056360008262000530565b6001810190506200054d565b5050565b601f821115620005be57620005888162000432565b620005938462000447565b81016020851015620005a3578190505b620005bb620005b28562000447565b8301826200054c565b50505b505050565b600082821c905092915050565b6000620005e360001984600802620005c3565b1980831691505092915050565b6000620005fe8383620005d0565b9150826002028217905092915050565b620006198262000394565b67ffffffffffffffff8111156200063557620006346200039f565b5b620006418254620003fd565b6200064e82828562000573565b600060209050601f83116001811462000686576000841562000671578287015190505b6200067d8582620005f0565b865550620006ed565b601f198416620006968662000432565b60005b82811015620006c05784890151825560018201915060208501945060208101905062000699565b86831015620006e05784890151620006dc601f891682620005d0565b8355505b6001600288020188555050505b505050505050565b600073ffffffffffffffffffffffffffffffffffffffff82169050919050565b60006200072282620006f5565b9050919050565b620007348162000715565b82525050565b600060208201905062000751600083018462000729565b92915050565b7f4e487b7100000000000000000000000000000000000000000000000000000000600052601160045260246000fd5b60006200079382620004ba565b9150620007a083620004ba565b9250828201905080821115620007bb57620007ba62000757565b5b92915050565b620007cc81620004ba565b82525050565b6000606082019050620007e9600083018662000729565b620007f86020830185620007c1565b620008076040830184620007c1565b949350505050565b6000602082019050620008266000830184620007c1565b92915050565b612779806200083c6000396000f3fe608060405234801561001057600080fd5b50600436106101375760003560e01c806370a08231116100b8578063c2f1f14a1161007c578063c2f1f14a1461035a578063da7e84a41461038a578063db4d295b146103a6578063dd62ed3e146103c2578063f7746e36146103f2578063fddf9e031461042557610137565b806370a082311461028e5780638fc88c48146102be57806395d89b41146102ee5780639737c84c1461030c578063a9059cbb1461032a57610137565b80631b1c8109116100ff5780631b1c8109146101e457806323b872dd14610204578063313ce5671461023457806341ee28f6146102525780634cf2010e1461027257610137565b806306fdde031461013c578063095ea7b31461015a5780631198d21e1461018a57806317f956e0146101aa57806318160ddd146101c6575b600080fd5b610144610445565b6040516101519190611ef0565b60405180910390f35b610174600480360381019061016f9190611fab565b6104d7565b6040516101819190612006565b60405180910390f35b6101926104fa565b6040516101a19392919061219d565b60405180910390f35b6101c460048036038101906101bf91906121e9565b61092a565b005b6101ce610a15565b6040516101db9190612225565b60405180910390f35b6101ec610a1f565b6040516101fb9392919061224f565b60405180910390f35b61021e60048036038101906102199190612286565b610a8c565b60405161022b9190612006565b60405180910390f35b61023c610abb565b60405161024991906122f5565b60405180910390f35b61025a610ac4565b6040516102699392919061219d565b60405180910390f35b61028c600480360381019061028791906121e9565b610ef3565b005b6102a860048036038101906102a39190612310565b611014565b6040516102b59190612225565b60405180910390f35b6102d860048036038101906102d391906121e9565b61105c565b6040516102e59190612225565b60405180910390f35b6102f661107c565b6040516103039190611ef0565b60405180910390f35b61031461110e565b6040516103219190612225565b60405180910390f35b610344600480360381019061033f9190611fab565b61111e565b6040516103519190612006565b60405180910390f35b610374600480360381019061036f91906121e9565b611141565b604051610381919061233d565b60405180910390f35b6103a4600480360381019061039f91906121e9565b6111a8565b005b6103c060048036038101906103bb9190612358565b6111b2565b005b6103dc60048036038101906103d79190612398565b61136e565b6040516103e99190612225565b60405180910390f35b61040c600480360381019061040791906121e9565b6113f5565b60405161041c94939291906123d8565b60405180910390f35b61042d611465565b60405161043c9392919061219d565b60405180910390f35b6060600380546104549061244c565b80601f01602080910402602001604051908101604052809291908181526020018280546104809061244c565b80156104cd5780601f106104a2576101008083540402835291602001916104cd565b820191906000526020600020905b8154815290600101906020018083116104b057829003601f168201915b5050505050905090565b6000806104e26118c2565b90506104ef8185856118ca565b600191505092915050565b6060806060600060075467ffffffffffffffff81111561051d5761051c61247d565b5b60405190808252806020026020018201604052801561054b5781602001602082028036833780820191505090505b509050600060075467ffffffffffffffff81111561056c5761056b61247d565b5b60405190808252806020026020018201604052801561059a5781602001602082028036833780820191505090505b509050600060075467ffffffffffffffff8111156105bb576105ba61247d565b5b6040519080825280602002602001820160405280156105e95781602001602082028036833780820191505090505b5090506000805b60075481101561073257600073ffffffffffffffffffffffffffffffffffffffff1661061b82611141565b73ffffffffffffffffffffffffffffffffffffffff160361071f578085838151811061064a576106496124ac565b5b60200260200101818152505060066000828152602001908152602001600020600001548483815181106106805761067f6124ac565b5b6020026020010181815250506006600082815260200190815260200160002060010160009054906101000a900473ffffffffffffffffffffffffffffffffffffffff168383815181106106d6576106d56124ac565b5b602002602001019073ffffffffffffffffffffffffffffffffffffffff16908173ffffffffffffffffffffffffffffffffffffffff1681525050818061071b9061250a565b9250505b808061072a9061250a565b9150506105f0565b5060008167ffffffffffffffff81111561074f5761074e61247d565b5b60405190808252806020026020018201604052801561077d5781602001602082028036833780820191505090505b50905060008267ffffffffffffffff81111561079c5761079b61247d565b5b6040519080825280602002602001820160405280156107ca5781602001602082028036833780820191505090505b50905060008367ffffffffffffffff8111156107e9576107e861247d565b5b6040519080825280602002602001820160405280156108175781602001602082028036833780820191505090505b50905060005b8481101561091457878181518110610838576108376124ac565b5b6020026020010151848281518110610853576108526124ac565b5b602002602001018181525050868181518110610872576108716124ac565b5b602002602001015183828151811061088d5761088c6124ac565b5b6020026020010181815250508581815181106108ac576108ab6124ac565b5b60200260200101518282815181106108c7576108c66124ac565b5b602002602001019073ffffffffffffffffffffffffffffffffffffffff16908173ffffffffffffffffffffffffffffffffffffffff1681525050808061090c9061250a565b91505061081d565b5082828299509950995050505050505050909192565b61093381611141565b73ffffffffffffffffffffffffffffffffffffffff163373ffffffffffffffffffffffffffffffffffffffff16146109a0576040517f08c379a00000000000000000000000000000000000000000000000000000000081526004016109979061259e565b60405180910390fd5b60006006600083815260200190815260200160002060020160006101000a81548173ffffffffffffffffffffffffffffffffffffffff021916908373ffffffffffffffffffffffffffffffffffffffff1602179055506000600660008381526020019081526020016000206003018190555050565b6000600254905090565b600080600060066000600554815260200190815260200160002060010160009054906101000a900473ffffffffffffffffffffffffffffffffffffffff1660066000600554815260200190815260200160002060000154610a81600554611141565b925092509250909192565b600080610a976118c2565b9050610aa48582856118dc565b610aaf858585611970565b60019150509392505050565b60006012905090565b6060806060600060075467ffffffffffffffff811115610ae757610ae661247d565b5b604051908082528060200260200182016040528015610b155781602001602082028036833780820191505090505b509050600060075467ffffffffffffffff811115610b3657610b3561247d565b5b604051908082528060200260200182016040528015610b645781602001602082028036833780820191505090505b509050600060075467ffffffffffffffff811115610b8557610b8461247d565b5b604051908082528060200260200182016040528015610bb35781602001602082028036833780820191505090505b5090506000805b600754811015610cfb573373ffffffffffffffffffffffffffffffffffffffff16610be482611141565b73ffffffffffffffffffffffffffffffffffffffff1603610ce85780858381518110610c1357610c126124ac565b5b6020026020010181815250506006600082815260200190815260200160002060000154848381518110610c4957610c486124ac565b5b6020026020010181815250506006600082815260200190815260200160002060010160009054906101000a900473ffffffffffffffffffffffffffffffffffffffff16838381518110610c9f57610c9e6124ac565b5b602002602001019073ffffffffffffffffffffffffffffffffffffffff16908173ffffffffffffffffffffffffffffffffffffffff16815250508180610ce49061250a565b9250505b8080610cf39061250a565b915050610bba565b5060008167ffffffffffffffff811115610d1857610d1761247d565b5b604051908082528060200260200182016040528015610d465781602001602082028036833780820191505090505b50905060008267ffffffffffffffff811115610d6557610d6461247d565b5b604051908082528060200260200182016040528015610d935781602001602082028036833780820191505090505b50905060008367ffffffffffffffff811115610db257610db161247d565b5b604051908082528060200260200182016040528015610de05781602001602082028036833780820191505090505b50905060005b84811015610edd57878181518110610e0157610e006124ac565b5b6020026020010151848281518110610e1c57610e1b6124ac565b5b602002602001018181525050868181518110610e3b57610e3a6124ac565b5b6020026020010151838281518110610e5657610e556124ac565b5b602002602001018181525050858181518110610e7557610e746124ac565b5b6020026020010151828281518110610e9057610e8f6124ac565b5b602002602001019073ffffffffffffffffffffffffffffffffffffffff16908173ffffffffffffffffffffffffffffffffffffffff16815250508080610ed59061250a565b915050610de6565b5082828299509950995050505050505050909192565b60405180608001604052808281526020013373ffffffffffffffffffffffffffffffffffffffff168152602001600073ffffffffffffffffffffffffffffffffffffffff16815260200160008152506006600060075481526020019081526020016000206000820151816000015560208201518160010160006101000a81548173ffffffffffffffffffffffffffffffffffffffff021916908373ffffffffffffffffffffffffffffffffffffffff16021790555060408201518160020160006101000a81548173ffffffffffffffffffffffffffffffffffffffff021916908373ffffffffffffffffffffffffffffffffffffffff16021790555060608201518160030155905050600160075461100b91906125be565b60078190555050565b60008060008373ffffffffffffffffffffffffffffffffffffffff1673ffffffffffffffffffffffffffffffffffffffff168152602001908152602001600020549050919050565b600060066000838152602001908152602001600020600301549050919050565b60606004805461108b9061244c565b80601f01602080910402602001604051908101604052809291908181526020018280546110b79061244c565b80156111045780601f106110d957610100808354040283529160200191611104565b820191906000526020600020905b8154815290600101906020018083116110e757829003601f168201915b5050505050905090565b600061111933611014565b905090565b6000806111296118c2565b9050611136818585611970565b600191505092915050565b60004260066000848152602001908152602001600020600301541061119e576006600083815260200190815260200160002060020160009054906101000a900473ffffffffffffffffffffffffffffffffffffffff1690506111a3565b600090505b919050565b8060058190555050565b8073ffffffffffffffffffffffffffffffffffffffff163373ffffffffffffffffffffffffffffffffffffffff1614611220576040517f08c379a00000000000000000000000000000000000000000000000000000000081526004016112179061263e565b60405180910390fd5b600073ffffffffffffffffffffffffffffffffffffffff1661124183611141565b73ffffffffffffffffffffffffffffffffffffffff1614611297576040517f08c379a000000000000000000000000000000000000000000000000000000000815260040161128e906126aa565b60405180910390fd5b806006600084815260200190815260200160002060020160006101000a81548173ffffffffffffffffffffffffffffffffffffffff021916908373ffffffffffffffffffffffffffffffffffffffff16021790555061012c426112fa91906125be565b60066000848152602001908152602001600020600301819055506113696006600084815260200190815260200160002060010160009054906101000a900473ffffffffffffffffffffffffffffffffffffffff16670de0b6b3a764000060095461136491906126ca565b61111e565b505050565b6000600160008473ffffffffffffffffffffffffffffffffffffffff1673ffffffffffffffffffffffffffffffffffffffff16815260200190815260200160002060008373ffffffffffffffffffffffffffffffffffffffff1673ffffffffffffffffffffffffffffffffffffffff16815260200190815260200160002054905092915050565b60066020528060005260406000206000915090508060000154908060010160009054906101000a900473ffffffffffffffffffffffffffffffffffffffff16908060020160009054906101000a900473ffffffffffffffffffffffffffffffffffffffff16908060030154905084565b6060806060600060075467ffffffffffffffff8111156114885761148761247d565b5b6040519080825280602002602001820160405280156114b65781602001602082028036833780820191505090505b509050600060075467ffffffffffffffff8111156114d7576114d661247d565b5b6040519080825280602002602001820160405280156115055781602001602082028036833780820191505090505b509050600060075467ffffffffffffffff8111156115265761152561247d565b5b6040519080825280602002602001820160405280156115545781602001602082028036833780820191505090505b5090506000805b6007548110156116ca573373ffffffffffffffffffffffffffffffffffffffff166006600083815260200190815260200160002060010160009054906101000a900473ffffffffffffffffffffffffffffffffffffffff1673ffffffffffffffffffffffffffffffffffffffff16036116b757808583815181106115e2576115e16124ac565b5b6020026020010181815250506006600082815260200190815260200160002060000154848381518110611618576116176124ac565b5b6020026020010181815250506006600082815260200190815260200160002060020160009054906101000a900473ffffffffffffffffffffffffffffffffffffffff1683838151811061166e5761166d6124ac565b5b602002602001019073ffffffffffffffffffffffffffffffffffffffff16908173ffffffffffffffffffffffffffffffffffffffff168152505081806116b39061250a565b9250505b80806116c29061250a565b91505061155b565b5060008167ffffffffffffffff8111156116e7576116e661247d565b5b6040519080825280602002602001820160405280156117155781602001602082028036833780820191505090505b50905060008267ffffffffffffffff8111156117345761173361247d565b5b6040519080825280602002602001820160405280156117625781602001602082028036833780820191505090505b50905060008367ffffffffffffffff8111156117815761178061247d565b5b6040519080825280602002602001820160405280156117af5781602001602082028036833780820191505090505b50905060005b848110156118ac578781815181106117d0576117cf6124ac565b5b60200260200101518482815181106117eb576117ea6124ac565b5b60200260200101818152505086818151811061180a576118096124ac565b5b6020026020010151838281518110611825576118246124ac565b5b602002602001018181525050858181518110611844576118436124ac565b5b602002602001015182828151811061185f5761185e6124ac565b5b602002602001019073ffffffffffffffffffffffffffffffffffffffff16908173ffffffffffffffffffffffffffffffffffffffff168152505080806118a49061250a565b9150506117b5565b5082828299509950995050505050505050909192565b600033905090565b6118d78383836001611a64565b505050565b60006118e8848461136e565b90507fffffffffffffffffffffffffffffffffffffffffffffffffffffffffffffffff811461196a578181101561195a578281836040517ffb8f41b20000000000000000000000000000000000000000000000000000000081526004016119519392919061270c565b60405180910390fd5b61196984848484036000611a64565b5b50505050565b600073ffffffffffffffffffffffffffffffffffffffff168373ffffffffffffffffffffffffffffffffffffffff16036119e25760006040517f96c6fd1e0000000000000000000000000000000000000000000000000000000081526004016119d9919061233d565b60405180910390fd5b600073ffffffffffffffffffffffffffffffffffffffff168273ffffffffffffffffffffffffffffffffffffffff1603611a545760006040517fec442f05000000000000000000000000000000000000000000000000000000008152600401611a4b919061233d565b60405180910390fd5b611a5f838383611c3b565b505050565b600073ffffffffffffffffffffffffffffffffffffffff168473ffffffffffffffffffffffffffffffffffffffff1603611ad65760006040517fe602df05000000000000000000000000000000000000000000000000000000008152600401611acd919061233d565b60405180910390fd5b600073ffffffffffffffffffffffffffffffffffffffff168373ffffffffffffffffffffffffffffffffffffffff1603611b485760006040517f94280d62000000000000000000000000000000000000000000000000000000008152600401611b3f919061233d565b60405180910390fd5b81600160008673ffffffffffffffffffffffffffffffffffffffff1673ffffffffffffffffffffffffffffffffffffffff16815260200190815260200160002060008573ffffffffffffffffffffffffffffffffffffffff1673ffffffffffffffffffffffffffffffffffffffff168152602001908152602001600020819055508015611c35578273ffffffffffffffffffffffffffffffffffffffff168473ffffffffffffffffffffffffffffffffffffffff167f8c5be1e5ebec7d5bd14f71427d1e84f3dd0314c0f7b2291e5b200ac8c7c3b92584604051611c2c9190612225565b60405180910390a35b50505050565b600073ffffffffffffffffffffffffffffffffffffffff168373ffffffffffffffffffffffffffffffffffffffff1603611c8d578060026000828254611c8191906125be565b92505081905550611d60565b60008060008573ffffffffffffffffffffffffffffffffffffffff1673ffffffffffffffffffffffffffffffffffffffff16815260200190815260200160002054905081811015611d19578381836040517fe450d38c000000000000000000000000000000000000000000000000000000008152600401611d109392919061270c565b60405180910390fd5b8181036000808673ffffffffffffffffffffffffffffffffffffffff1673ffffffffffffffffffffffffffffffffffffffff16815260200190815260200160002081905550505b600073ffffffffffffffffffffffffffffffffffffffff168273ffffffffffffffffffffffffffffffffffffffff1603611da95780600260008282540392505081905550611df6565b806000808473ffffffffffffffffffffffffffffffffffffffff1673ffffffffffffffffffffffffffffffffffffffff168152602001908152602001600020600082825401925050819055505b8173ffffffffffffffffffffffffffffffffffffffff168373ffffffffffffffffffffffffffffffffffffffff167fddf252ad1be2c89b69c2b068fc378daa952ba7f163c4a11628f55a4df523b3ef83604051611e539190612225565b60405180910390a3505050565b600081519050919050565b600082825260208201905092915050565b60005b83811015611e9a578082015181840152602081019050611e7f565b60008484015250505050565b6000601f19601f8301169050919050565b6000611ec282611e60565b611ecc8185611e6b565b9350611edc818560208601611e7c565b611ee581611ea6565b840191505092915050565b60006020820190508181036000830152611f0a8184611eb7565b905092915050565b600080fd5b600073ffffffffffffffffffffffffffffffffffffffff82169050919050565b6000611f4282611f17565b9050919050565b611f5281611f37565b8114611f5d57600080fd5b50565b600081359050611f6f81611f49565b92915050565b6000819050919050565b611f8881611f75565b8114611f9357600080fd5b50565b600081359050611fa581611f7f565b92915050565b60008060408385031215611fc257611fc1611f12565b5b6000611fd085828601611f60565b9250506020611fe185828601611f96565b9150509250929050565b60008115159050919050565b61200081611feb565b82525050565b600060208201905061201b6000830184611ff7565b92915050565b600081519050919050565b600082825260208201905092915050565b6000819050602082019050919050565b61205681611f75565b82525050565b6000612068838361204d565b60208301905092915050565b6000602082019050919050565b600061208c82612021565b612096818561202c565b93506120a18361203d565b8060005b838110156120d25781516120b9888261205c565b97506120c483612074565b9250506001810190506120a5565b5085935050505092915050565b600081519050919050565b600082825260208201905092915050565b6000819050602082019050919050565b61211481611f37565b82525050565b6000612126838361210b565b60208301905092915050565b6000602082019050919050565b600061214a826120df565b61215481856120ea565b935061215f836120fb565b8060005b83811015612190578151612177888261211a565b975061218283612132565b925050600181019050612163565b5085935050505092915050565b600060608201905081810360008301526121b78186612081565b905081810360208301526121cb8185612081565b905081810360408301526121df818461213f565b9050949350505050565b6000602082840312156121ff576121fe611f12565b5b600061220d84828501611f96565b91505092915050565b61221f81611f75565b82525050565b600060208201905061223a6000830184612216565b92915050565b61224981611f37565b82525050565b60006060820190506122646000830186612240565b6122716020830185612216565b61227e6040830184612240565b949350505050565b60008060006060848603121561229f5761229e611f12565b5b60006122ad86828701611f60565b93505060206122be86828701611f60565b92505060406122cf86828701611f96565b9150509250925092565b600060ff82169050919050565b6122ef816122d9565b82525050565b600060208201905061230a60008301846122e6565b92915050565b60006020828403121561232657612325611f12565b5b600061233484828501611f60565b91505092915050565b60006020820190506123526000830184612240565b92915050565b6000806040838503121561236f5761236e611f12565b5b600061237d85828601611f96565b925050602061238e85828601611f60565b9150509250929050565b600080604083850312156123af576123ae611f12565b5b60006123bd85828601611f60565b92505060206123ce85828601611f60565b9150509250929050565b60006080820190506123ed6000830187612216565b6123fa6020830186612240565b6124076040830185612240565b6124146060830184612216565b95945050505050565b7f4e487b7100000000000000000000000000000000000000000000000000000000600052602260045260246000fd5b6000600282049050600182168061246457607f821691505b6020821081036124775761247661241d565b5b50919050565b7f4e487b7100000000000000000000000000000000000000000000000000000000600052604160045260246000fd5b7f4e487b7100000000000000000000000000000000000000000000000000000000600052603260045260246000fd5b7f4e487b7100000000000000000000000000000000000000000000000000000000600052601160045260246000fd5b600061251582611f75565b91507fffffffffffffffffffffffffffffffffffffffffffffffffffffffffffffffff8203612547576125466124db565b5b600182019050919050565b7f596f7520617265206e6f742074686520626f72726f7765722100000000000000600082015250565b6000612588601983611e6b565b915061259382612552565b602082019050919050565b600060208201905081810360008301526125b78161257b565b9050919050565b60006125c982611f75565b91506125d483611f75565b92508282019050808211156125ec576125eb6124db565b5b92915050565b7f596f75206d75737420626f72726f7720666f7220796f757273656c6621000000600082015250565b6000612628601d83611e6b565b9150612633826125f2565b602082019050919050565b600060208201905081810360008301526126578161261b565b9050919050565b7f5468652063617220686173206265656e20626f72726f77210000000000000000600082015250565b6000612694601883611e6b565b915061269f8261265e565b602082019050919050565b600060208201905081810360008301526126c381612687565b9050919050565b60006126d582611f75565b91506126e083611f75565b92508282026126ee81611f75565b91508282048414831517612705576127046124db565b5b5092915050565b60006060820190506127216000830186612240565b61272e6020830185612216565b61273b6040830184612216565b94935050505056fea264697066735822122089ae80d4f32ac8b5a13ceac410b7f598c9efbcd408655ed377d18118e4eabae464736f6c63430008140033",
  "linkReferences": {},
  "deployedLinkReferences": {}
}